:100000000C945D000C9485000C9485000C94850084
:100010000C9485000C9485000C9485000C9485004C
:100020000C9485000C9485000C9485000C9485003C
:100030000C9485000C9485000C9485000C9485002C
:100040000C9477020C9485000C94E7020C94C10286
:100050000C9485000C9485000C9485000C9485000C
:100060000C9485000C9485000000000024002700FB
:100070002A0000000000250028002B0004040404CE
:100080000404040402020202020203030303030342
:10009000010204081020408001020408102001021F
:1000A00004081020000000080002010000030407FB
:1000B0000000000000000000550411241FBECFEF17
:1000C000D8E0DEBFCDBF11E0A0E0B1E0E8E5F9E0A7
:1000D00002C005900D92A833B107D9F721E0A8E33B
:1000E000B1E001C01D92AE3DB207E1F710E0CDE5F1
:1000F000D0E004C02197FE010E94A404CC35D107B2
:10010000C9F70E9419030C94AA040C94000090E013
:10011000FC01EC55FF4F2491FC01E057FF4F349157
:10012000FC01E458FF4FE491EE23C9F0222339F09B
:10013000233001F1A8F4213019F1223029F1F0E047
:10014000EE0FFF1FEE58FF4FA591B4918FB7F894B3
:10015000EC91611126C030953E233C938FBF0895EA
:100160002730A9F02830C9F0243049F78091800069
:100170008F7D03C0809180008F7780938000DFCFD8
:1001800084B58F7784BDDBCF84B58F7DFBCF809125
:10019000B0008F778093B000D2CF8091B0008F7D78
:1001A000F9CF3E2BDACF3FB7F89480913D01909183
:1001B0003E01A0913F01B091400126B5A89B05C02A
:1001C0002F3F19F00196A11DB11D3FBFBA2FA92FD6
:1001D000982F8827BC01CD01620F711D811D911DD3
:1001E00042E0660F771F881F991F4A95D1F708953F
:1001F000AF92BF92CF92DF92EF92FF920F931F9335
:10020000CF93DF936C017B018B01040F151FEB0172
:100210005E01AE18BF08C017D10759F06991D60129
:10022000ED91FC910190F081E02DC6010995892B9B
:1002300079F7C501DF91CF911F910F91FF90EF905A
:10024000DF90CF90BF90AF900895FC01538D448D07
:10025000252F30E0842F90E0821B930B541710F071
:10026000CF96089501970895FC01918D828D98177E
:1002700061F0A28DAE0FBF2FB11D5D968C91928D56
:100280009F5F9F73928F90E008958FEF9FEF089587
:10029000FC01918D828D981731F0828DE80FF11D50
:1002A000858D90E008958FEF9FEF0895FC01918D6B
:1002B000228D892F90E0805C9F4F821B91098F7364
:1002C0009927089581E491E00E94560121E0892B4D
:1002D00009F420E0822F089580E090E0892B29F036
:1002E0000E94620181110C9400000895FC01A48D0C
:1002F000A80FB92FB11DA35ABF4F2C91848D90E048
:1003000001968F739927848FA689B7892C93A0892A
:10031000B1898C91837080648C93938D848D9813B4
:1003200006C00288F389E02D80818F7D8083089547
:10033000EF92FF920F931F93CF93DF93EC0181E035
:10034000888F9B8D8C8D98131AC0E889F9898081DC
:1003500085FF15C09FB7F894EE89FF896083E8890F
:10036000F98980818370806480839FBF81E090E001
:10037000DF91CF911F910F91FF90EF900895F62E8E
:100380000B8D10E00F5F1F4F0F731127E02E8C8D28
:100390008E110CC00FB607FCFACFE889F98980816D
:1003A00085FFF5CFCE010E947601F1CFEB8DEC0FEA
:1003B000FD2FF11DE35AFF4FF0829FB7F8940B8F8A
:1003C000EA89FB8980818062CFCFCF93DF93EC01F4
:1003D000888D8823B9F0AA89BB89E889F9898C912D
:1003E00085FD03C0808186FD0DC00FB607FCF7CFE9
:1003F0008C9185FFF2CF808185FFEDCFCE010E94E9
:100400007601E9CFDF91CF910895FC0101900020A2
:10041000E9F73197AF01481B590BBC0181E491E02A
:100420000C94F8008F929F92AF92BF920F931F93FC
:10043000CF93DF93CDB7DEB7A1970FB6F894DEBFA9
:100440000FBECDBF19A2423008F44AE08E010F5D05
:100450001F4F842E912CB12CA12CA50194010E9438
:100460008204E62FB901CA01EA30F4F4E05DD80154
:10047000EE938D01232B242B252B79F790E080E040
:10048000109719F0CD010E940502A1960FB6F894BD
:10049000DEBF0FBECDBFDF91CF911F910F91BF90F7
:1004A000AF909F908F900895E95CE1CFCF92DF925B
:1004B000EF92FF92CF93DF936B017C016DE281E4B9
:1004C00091E00E949801EC0166277727CB016C1917
:1004D0007D098E099F094AE00E9412028C0F9D1F20
:1004E000DF91CF91FF90EF90DF90CF9008951F9212
:1004F0000F920FB60F9211242F933F938F939F93D8
:10050000AF93BF938091390190913A01A0913B0143
:10051000B0913C013091380123E0230F2D3758F57D
:100520000196A11DB11D209338018093390190934C
:100530003A01A0933B01B0933C0180913D01909121
:100540003E01A0913F01B09140010196A11DB11D56
:1005500080933D0190933E01A0933F01B0934001F1
:10056000BF91AF919F918F913F912F910F900FBEAF
:100570000F901F90189526E8230F0296A11DB11D1C
:10058000D2CF1F920F920FB60F9211242F933F9349
:100590004F935F936F937F938F939F93AF93BF938B
:1005A000EF93FF9381E491E00E947601FF91EF9138
:1005B000BF91AF919F918F917F916F915F914F917B
:1005C0003F912F910F900FBE0F901F9018951F9283
:1005D0000F920FB60F9211242F938F939F93EF9347
:1005E000FF93E0915101F09152018081E091570118
:1005F000F091580182FD1BC0908180915A018F5F5C
:100600008F7320915B01821741F0E0915A01F0E075
:10061000EF5BFE4F958F80935A01FF91EF919F9171
:100620008F912F910F900FBE0F901F901895808182
:10063000F4CFCF93DF9300D000D000D01F92CDB77E
:10064000DEB7789484B5826084BD84B5816084BD52
:1006500085B5826085BD85B5816085BD80916E0060
:10066000816080936E001092810080918100826091
:1006700080938100809181008160809381008091CE
:1006800080008160809380008091B10084608093BD
:10069000B1008091B00081608093B00080917A00B9
:1006A000846080937A0080917A00826080937A00DF
:1006B00080917A00816080937A0080917A008068CE
:1006C00080937A001092C100E0915101F0915201A3
:1006D00082E08083E0914D01F0914E011082E09123
:1006E0004F01F09150018FEC808310925901E091FD
:1006F0005501F091560186E08083E0915301F0911D
:100700005401808180618083E0915301F091540114
:10071000808188608083E0915301F0915401808151
:1007200080688083E0915301F091540180818F7D36
:1007300080832EE131E0A8E1B1E08D919D91992770
:10074000FC01E057FF4F449184589F4FFC01849176
:100750008823A1F090E0880F991FFC01E859FF4F12
:1007600005911491FC01EE58FF4F859194918FB73C
:10077000F894F8019081942B90838FBF2A173B0740
:10078000E1F692E1292E91E0392E08E111E0C12C29
:10079000D12C7601C394D801BC91BD830E5F1F4F4D
:1007A00061E08B2F0E948700F101619171911F011F
:1007B0007F836E83CB01092E000CAA0BBB0B8983B0
:1007C0009A83AB83BC83AE81BF811A161B060CF0E3
:1007D0004FC08EE191E00E9405024AE0C701B601D8
:1007E0000E9412028AE291E00E9405024AE06981B9
:1007F0007A818B819C810E94120280E391E00E94A9
:10080000050285E391E00E9405020E94D3002B01BE
:100810003C0188EE882E83E0982EA12CB12C0E94FA
:10082000D3006419750986099709683E73408105EC
:100830009105A8F3B1E08B1A9108A108B108E8EE80
:100840004E0EE3E05E1E611C711C81149104A10434
:10085000B10429F76E817F81615071097F836E83B6
:1008600089819A81AB81BC810197A109B109A7CF88
:1008700060E08D810E9487009FEFC91AD90AE90ABA
:10088000F90AA4E0CA16D104E104F10409F083CF07
:10089000E0E0F0E0EF2B09F474CF0E9462018823BE
:1008A00009F46FCF0E9400006CCFE1E4F1E0138205
:1008B000128288EE93E0A0E0B0E084839583A68363
:1008C000B78384E091E09183808385EC90E0958705
:1008D000848784EC90E09787868780EC90E0918B0A
:1008E000808B81EC90E0938B828B82EC90E0958BF7
:1008F000848B86EC90E0978B868B118E128E138EF4
:10090000148E0895A1E21A2EAA1BBB1BFD010DC077
:10091000AA1FBB1FEE1FFF1FA217B307E407F507AF
:1009200020F0A21BB30BE40BF50B661F771F881F8B
:10093000991F1A9469F760957095809590959B0121
:10094000AC01BD01CF010895EE0FFF1F0590F4919A
:08095000E02D0994F894FFCF9B
:10095800000000009801F8002501E5015601340166
:1009680048010A00040014000200030004004C457A
:100978004420D8B1D982D9852000202D203A2000E2
:0809880020736563000D0A00F5
:00000001FF
