:020000040000FA
:100000000C9463000C948B000C948B000C948B006C
:100010000C948B000C948B000C948B000C94270593
:100020000C948B000C948B000C948B000C94CD05DD
:100030000C948B000C948B000C948B000C948B0014
:100040000C9483050C948B000C948B000C948B0007
:100050000C948B000C948B000C948B000C948B00F4
:100060000C948B000C948B000000000024002700EF
:100070002A000000000023002600290000000008DC
:10008000000201000003040700000000000000005F
:10009000010204081020408001020408102001021F
:1000A0000408102000000000250028002B00040494
:1000B0000404040404040202020202020303030310
:1000C00003030200D00711241FBECFEFD8E0DEBF2C
:1000D000CDBF11E0A0E0B1E0EEE1F1E102C005909A
:1000E0000D92A234B107D9F721E0A2E4B1E001C03A
:1000F0001D92AD39B207E1F710E0C3E6D0E004C0CD
:100100002197FE010E948708C236D107C9F70E94D5
:1001100089060C948D080C9400008F929F92AF92E8
:10012000BF92FF920F931F93CF93DF93F0908201C2
:100130002BE02F1508F450C02091840108E512E04F
:10014000021B110927FD1395000F111F000F111F2E
:1001500020918301C8E8D0E0C21BD10927FDD395C7
:10016000CC0FDD1FCC0FDD1F4E010D2E000CAA0899
:10017000BB08DC0197FF02C0B0E0A0E09801012EAF
:10018000000C440B550B281939094A095B090E94D8
:10019000420824EB30E040E050E00E941808820E54
:1001A000931EA41EB51E8C169D062CF0E801801629
:1001B00091060CF4E4012297CC0FDD1F2FB7F894C1
:1001C0008F2D90E0FC01EE0FFF1FE80FF91FE25AA0
:1001D000FE4FD283C1832FBFDF91CF911F910F912B
:1001E000FF90BF90AF909F908F900895AF92BF9275
:1001F000CF92DF92EF92FF920F931F93CF93DF93F3
:100200006C017B018B01040F151FEB015E01AE1821
:10021000BF08C017D10759F06991D601ED91FC9143
:100220000190F081E02DC6010995892B79F7C50170
:10023000DF91CF911F910F91FF90EF90DF90CF90C2
:10024000BF90AF900895833081F028F4813099F009
:100250008230A9F008958730A9F08830C9F0843041
:10026000B1F4809180008F7D03C0809180008F77F2
:1002700080938000089584B58F7784BD089584B5F8
:100280008F7DFBCF8091B0008F778093B000089571
:100290008091B0008F7DF9CFCF93DF93282F30E08E
:1002A000F901E458FF4F8491F901E057FF4FD491D1
:1002B000F901E255FF4FC491CC23A1F081110E94B6
:1002C0002301EC2FF0E0EE0FFF1FEE58FF4FA5913A
:1002D000B491EC91ED2381E090E009F480E0DF91AE
:1002E000CF91089580E090E0FACF1F93CF93DF93F2
:1002F000282F30E0F901E458FF4F8491F901E057CD
:10030000FF4FD491F901E255FF4FC491CC23A9F0DE
:10031000162F81110E942301EC2FF0E0EE0FFF1F3A
:10032000EC55FF4FA591B4918FB7F894EC91111152
:1003300008C0D095DE23DC938FBFDF91CF911F9152
:100340000895DE2BF8CF9091000189130BC0E2ECE9
:10035000F0E0E4919FEF90930001E13049F028F044
:10036000E23061F060E00C94750110926E00FACFFB
:1003700090916F009D7F90936F00F4CF90917000EB
:100380009D7F9093700091E09093B0009091B100A8
:10039000987F94609093B1001092B300E3CFCF9315
:1003A000DF9390E0FC01E057FF4F249182559F4F6F
:1003B000FC0184918823D1F090E0880F991FFC0103
:1003C000E859FF4FA591B491FC01EC55FF4FC59141
:1003D000D49161110EC09FB7F8948C91E22FE095F3
:1003E0008E238C932881E223E8839FBFDF91CF91F6
:1003F00008958FB7F894EC91E22BEC938FBFF6CF72
:10040000CF92DF92EF92FF92CF936B019091000118
:10041000891749F09F3F09F44BC0CF91FF90EF90AF
:10042000DF90CF900895E2ECF0E0C491C7FDF5CFE6
:1004300061E00E94CF01CC2319F0C23009F0E3C083
:10044000F12CE12C60E472E48FE090E0A7019601CA
:100450000E941808BA01A9014150510961097109A6
:10046000C23009F09EC092E04F3F51056105710511
:1004700081F07CF060E970ED83E090E0A7019601E7
:100480000E941808BA01A901415051096109710976
:1004900093E08091B100887F892B8093B100C130B7
:1004A00009F4C9C0C23009F4DBC0C111B6CF99C08C
:1004B00080930001E2ECF0E0C491CF3F09F4ADCFAE
:1004C000C13039F148F0C23009F445C0C7FDA5CFAD
:1004D00061E00E94CF01B1CF14BC15BC94B592600D
:1004E00094BD95B5916095BD282F30E0F901E25596
:1004F000FF4FE491F0E0EE0FFF1FEC55FF4F4591E9
:100500005491F901E057FF4FE491E0935101C0E0AD
:100510008FCF10928000109281009091810098609E
:100520009093810090918100916090938100282F99
:1005300030E0F901E255FF4FE491F0E0EE0FFF1FCC
:10054000EC55FF4F45915491F901E057FF4FE4916D
:10055000E09350016DCF1092B0001092B1009091D5
:10056000B00092609093B0009091B1009160909330
:10057000B100282F30E0F901E255FF4FE491F0E09F
:10058000EE0FFF1FEC55FF4F4591549150934F01D3
:1005900040934E01F901E057FF4FE491E0934D0184
:1005A00047CF4F3F510561057105A1F09CF068E40C
:1005B00078EE81E090E0A70196010E941808BA0148
:1005C000A901415051096109710994E0C11161CF3C
:1005D00093E003C092E0C1115CCF85B5887F892B81
:1005E00085BD47BD8FEF9FEFDC0180935A0190934B
:1005F0005B01A0935C01B0935D0180916E0082600D
:1006000080936E000ACF960150E040E060E072E116
:100610008AE790E00E941808BA01A90141505109E7
:1006200061097109C13009F03ACF80918100887F5A
:1006300081608093810050938900409388008FEF00
:100640009FEFDC018093560190935701A0935801CE
:10065000B093590180916F00826080936F00DDCE6E
:100660004093B3008FEF9FEFDC0180935201909392
:100670005301A0935401B0935501809170008260A2
:1006800080937000CACE3FB7F89480914901909151
:100690004A01A0914B01B0914C0126B5A89B05C021
:1006A0002F3F19F00196A11DB11D3FBFBA2FA92FF1
:1006B000982F8827BC01CD01620F711D811D911DEE
:1006C00042E0660F771F881F991F4A95D1F708955A
:1006D0008F929F92AF92BF92CF92DF92EF92FF9252
:1006E0004B015C010E9443036B017C010E944303A8
:1006F0006C197D098E099F09683E7340810591053B
:10070000A8F321E0821A9108A108B10888EEC80E6A
:1007100083E0D81EE11CF11C81149104A104B104F2
:1007200029F7FF90EF90DF90CF90BF90AF909F9010
:100730008F900895089590E080E00895CF93DF931F
:10074000D0E0C0E0CE010E948D0064E170E080E066
:1007500090E00E9468032396CD35D10599F7CAE54C
:10076000D0E0CE010E948D0064E170E080E090E076
:100770000E9468032397CD3F8FEFD80791F7DF9151
:10078000CF910895FC0101900020E9F73197AF0166
:10079000481B590BBC0185E891E00C94F600CF93FF
:1007A000DF93EC0160E08E810E94750161E08E8133
:1007B0000E94750160E08E810E9475018BE891E0D6
:1007C0000197F1F7DF91CF910895CF92DF92EF92E9
:1007D000FF920F931F93CF93DF936C017C0187E00F
:1007E000E80EF11CD0E0C0E0062F10E0B8010C2E9E
:1007F00002C0759567950A94E2F76170F7018191DF
:100800007F010E9475012196C430D10579F7C60198
:10081000DF91CF911F910F91FF90EF90DF90CF90DC
:100820000C94CF03CF92DF92EF92FF920F931F931E
:10083000CF93DF93EC01F62E642F8C810E9475011B
:100840008D818F3F19F060E00E9475010F2D10E03F
:100850008F8584FF25C06E0187E0C80ED11CF12C66
:10086000E12CB8010E2C02C0759567950A94E2F749
:100870006170F60181916F010E947501FFEFEF1A1F
:10088000FF0A88E0E816F10461F7CE01DF91CF910D
:100890001F910F91FF90EF90DF90CF900C94CF03BA
:1008A000B80184E0759567958A95E1F7CE010E94BD
:1008B000E5036F2DCE01DF91CF911F910F91FF9036
:1008C000EF90DF90CF900C94E50340E0682F85E82F
:1008D00091E00C94120481E00E9465048BE39FE197
:1008E0000197F1F70895CF93DF93823029F4909127
:1008F00094019860909394018093980110929901CB
:1009000080E480939A0180E180939B0180E580934D
:100910009C0161E0809189010E94CF0180918A0150
:100920008F3F19F061E00E94CF0161E080918B015F
:100930000E94CF01C5E8D1E09E0125583140809149
:10094000940184FD0BC084E090E0219628173907BC
:1009500044F461E08E810E94CF01EECF88E090E008
:10096000F4CF8BE39DE00197F1F760E0809189017E
:100970000E94750160E080918B010E947501809159
:100980008A018F3F19F060E00E9475018091940107
:1009900084FD34C063E085E891E00E94E503CBE488
:1009A000D6E4CE010197F1F763E085E891E00E947B
:1009B000E5032197F1F763E085E891E00E94E50304
:1009C00083E592E00197F1F762E085E891E00E940B
:1009D000E5038091940180620E94650484E0809325
:1009E00095018CE00E9465040E946B0482E0809374
:1009F000960186E0DF91CF910C94650480620E949D
:100A000065048BE496E40197F1F78091940180628C
:100A10000E94650483E592E00197F1F780919401CB
:100A200080620E946504D5CFE1E080919801811138
:100A3000E0E0E195F0E0EB57FE4F848980680C948C
:100A4000650441E00E94120481E090E008951F9245
:100A50000F920FB60F9211242F933F934F935F93F2
:100A60006F937F938F939F93AF93BF93EF93FF9376
:100A70008091520190915301A0915401B091550180
:100A8000892B8A2B8B2BD1F190914D01E0914E0156
:100A9000F0914F018081892780838091520190914C
:100AA0005301A0915401B0915501181619061A0668
:100AB0001B069CF48091520190915301A091540126
:100AC000B09155010197A109B1098093520190930A
:100AD0005301A0935401B0935501FF91EF91BF9141
:100AE000AF919F918F917F916F915F914F913F91C6
:100AF0002F910F900FBE0F901F90189580910001BD
:100B00000E94A301EACF1F920F920FB60F921124F9
:100B10002F933F938F939F93AF93BF938091450102
:100B200090914601A0914701B09148013091440154
:100B300023E0230F2D3758F50196A11DB11D2093F9
:100B400044018093450190934601A0934701B093DF
:100B500048018091490190914A01A0914B01B091C7
:100B60004C010196A11DB11D8093490190934A014A
:100B7000A0934B01B0934C01BF91AF919F918F9186
:100B80003F912F910F900FBE0F901F90189526E860
:100B9000230F0296A11DB11DD2CF1F920F920FB647
:100BA0000F9211242F933F934F935F936F937F93F3
:100BB0008F939F93AF93BF93CF93DF93EF93FF9365
:100BC00080914301C0914201D0E087FF24C0109280
:100BD000850010928400809143018F5F80934301D0
:100BE00080914301082E000C990B8C179D0724F46B
:100BF000809143018C30C4F18091840090918500F4
:100C0000049680349C4908F47AC0809184009091C5
:100C10008500049676C080914301082E000C990B44
:100C20008C179D07C4F6E09143018E2FEE0F990BB0
:100C3000FC01EE0FFF1FE80FF91FE25AFE4F808103
:100C400086FFC9CFE09143018E2FEE0F990BFC0177
:100C5000EE0FFF1FE80FF91FE25AFE4F808160E0A0
:100C60008F730E947501B7CF209184003091850069
:100C7000E09143018E2FEE0F990BFC01EE0FFF1F49
:100C8000E80FF91FE25AFE4F81819281820F931F74
:100C90009093890080938800E09143018E2FEE0F9E
:100CA000990BFC01EE0FFF1FE80FF91FE25AFE4FF0
:100CB000808186FF11C0E09143018E2FEE0F990BCA
:100CC000FC01EE0FFF1FE80FF91FE25AFE4F808173
:100CD00061E08F730E947501FF91EF91DF91CF91D9
:100CE000BF91AF919F918F917F916F915F914F9144
:100CF0003F912F910F900FBE0F901F90189580E499
:100D00009CE990938900809388008FEF8093430142
:100D1000E3CF789484B5826084BD84B5816084BD5E
:100D200085B5826085BD85B5816085BD80916E0089
:100D3000816080936E0010928100809181008260BA
:100D400080938100809181008160809381008091F7
:100D500080008160809380008091B10084608093E6
:100D6000B1008091B00081608093B00080917A00E2
:100D7000846080937A0080917A00826080937A0008
:100D800080917A00816080937A0080917A008068F7
:100D900080937A001092C10060E082E00E94CF014F
:100DA00060E083E00E94CF0161E087E00E94CF0114
:100DB00061E086E00E94CF0161E084E00E94CF0103
:100DC000809182018C3008F051C061E085E00E9482
:100DD000CF0180918201282F30E0F901EE0FFF1F33
:100DE000E20FF31FE25AFE4F9081907C9560908352
:100DF00010928301109284012CE0622F0E947B08E4
:100E0000829FB001112430E020E0AB01420F531F5C
:100E1000FA01EE0FFF1FE40FF51FE25AFE4F90811B
:100E200096FD16C02F5F3F4F2C30310571F78111B1
:100E30000FC01092800082E08093810010928500A4
:100E400010928400B19A80916F00826080936F004D
:100E5000E09182018E2F90E0FC01EE0FFF1FE80F62
:100E6000F91FE25AFE4F80818064808382E00E94F5
:100E700073040E946B0460E087E00E94750161E0EA
:100E800086E00E94750184E00E94A301C0E0D0E0EA
:100E900082E00E944C018C0183E00E944C010130F1
:100EA000110509F05DC0019749F10E946B040E9491
:100EB00014058DE091E00E94C20361E087E00E948A
:100EC000750160E086E00E94750168EB7BE084E0DC
:100ED0000E94000268EC70E080E090E00E946803ED
:100EE00084E00E94A30168EC70E080E090E00E9442
:100EF0006803209769F20E940000CACF0E946B0429
:100F00000E9414058AE291E00E94C20361E087E03A
:100F10000E94750160E086E00E94750168E873E157
:100F200084E00E9400026AEF70E080E090E033C04D
:100F30000E946B040E94140589E391E00E94C203A1
:100F400060E087E00E94750161E086E00E94750123
:100F500084E00E94A3016CE271E080E090E0C7CFE2
:100F6000019731F70E946B040E9414058BE191E018
:100F70000E94C20361E087E00E94750160E086E0A4
:100F80000E9475016CEA7DE084E00E94000266E93F
:100F900070E080E090E00E9468030E949E03A0CF72
:100FA000CF93109288011092870185E091E0909391
:100FB0008601809385018DE080938901CFEFC093F6
:100FC0008A018CE080938B018BE080938C018AE016
:100FD00080938D0189E080938E0188E080938F015A
:100FE000109290011092910110929201109293012F
:100FF0001092940181E00E947304809142018C3030
:10100000A0F491E0980F909342018093820190E0C8
:10101000FC01EE0FFF1FE80FF91FE25AFE4F88EBAD
:101020009BE092838183CF910895C0938201FBCF8F
:10103000052E97FB1EF400940E942F0857FD07D041
:101040000E944A0807FC03D04EF40C942F085095D8
:101050004095309521953F4F4F4F5F4F08959095A4
:101060008095709561957F4F8F4F9F4F08950E9497
:101070006C08A59F900DB49F900DA49F800D911DAD
:1010800011240895B7FF0C9437080E943708821B7B
:10109000930B0895A1E21A2EAA1BBB1BFD010DC0E4
:1010A000AA1FBB1FEE1FFF1FA217B307E407F50718
:1010B00020F0A21BB30BE40BF50B661F771F881FF4
:1010C000991F1A9469F760957095809590959B018A
:1010D000AC01BD01CF010895A29FB001B39FC00133
:1010E000A39F700D811D1124911DB29F700D811D54
:1010F0001124911D0895991B79E004C0991F96173A
:1011000008F0961B881F7A95C9F780950895EE0F11
:10111000FF1F0590F491E02D0994F894FFCFFF0094
:101120000000002105F6009B039A034761732044E9
:101130006574656374656421004669726520446561
:101140007465637465642100476173202B204669D0
:101150007265202121210053616665204E6F770062
:107E0000112484B714BE81FFF0D085E080938100F7
:107E100082E08093C00088E18093C10086E0809377
:107E2000C20080E18093C4008EE0C9D0259A86E02C
:107E300020E33CEF91E0309385002093840096BBD3
:107E4000B09BFECF1D9AA8958150A9F7CC24DD24C4
:107E500088248394B5E0AB2EA1E19A2EF3E0BF2EE7
:107E6000A2D0813461F49FD0082FAFD0023811F036
:107E7000013811F484E001C083E08DD089C08234E0
:107E800011F484E103C0853419F485E0A6D080C0E4
:107E9000853579F488D0E82EFF2485D0082F10E0AE
:107EA000102F00270E291F29000F111F8ED06801E7
:107EB0006FC0863521F484E090D080E0DECF843638
:107EC00009F040C070D06FD0082F6DD080E0C81688
:107ED00080E7D80618F4F601B7BEE895C0E0D1E017
:107EE00062D089930C17E1F7F0E0CF16F0E7DF06D8
:107EF00018F0F601B7BEE89568D007B600FCFDCFD4
:107F0000A601A0E0B1E02C9130E011968C91119780
:107F100090E0982F8827822B932B1296FA010C0160
:107F200087BEE89511244E5F5F4FF1E0A038BF0790
:107F300051F7F601A7BEE89507B600FCFDCF97BE46
:107F4000E89526C08437B1F42ED02DD0F82E2BD052
:107F50003CD0F601EF2C8F010F5F1F4F84911BD097
:107F6000EA94F801C1F70894C11CD11CFA94CF0C13
:107F7000D11C0EC0853739F428D08EE10CD085E9AC
:107F80000AD08FE07ACF813511F488E018D01DD067
:107F900080E101D065CF982F8091C00085FFFCCF94
:107FA0009093C60008958091C00087FFFCCF809118
:107FB000C00084FD01C0A8958091C6000895E0E648
:107FC000F0E098E1908380830895EDDF803219F02E
:107FD00088E0F5DFFFCF84E1DECF1F93182FE3DFCA
:107FE0001150E9F7F2DF1F91089580E0E8DFEE27F6
:047FF000FF270994CA
:027FFE00040479
:00000001FF
